:10000000C8060020D1170000CD170000CD17000052
:1000100000000000000000000000000000000000E0
:10002000000000000000000000000000CD170000EC
:100030000000000000000000CD170000CD170000F8
:10004000CD170000CD170000CD170000CD17000020
:10005000C9060000CD170000CD1700000000000009
:10006000CD170000E10A0000F10A0000010B0000BA
:10007000CD170000AD170000BD17000005060000F9
:10008000CD170000CD170000CD17000010B5064CAD
:100090002378002B07D1054B002B02D0044800E049
:1000A00000BF0123237010BD1400002000000000D9
:1000B0006C1F0000084B10B5002B03D007490848FF
:1000C00000E000BF07480368002B00D110BD064BBD
:1000D000002BFBD09847F9E7000000001800002033
:1000E0006C1F00006C1F0000000000000C4B1B6820
:1000F000002B06D1EFF31083002B07D00022094B11
:100100001A70074A136801331360704772B6BFF361
:100110005F8F0022044B1A700132024B1A70F0E715
:10012000300000203400002000000020084B1A6836
:10013000013A1A601B68002B09D1064B1B78002B73
:1001400005D00122044B1A70BFF35F8F62B670476F
:10015000300000203400002000000020F0B583B003
:1001600001AC012565700027A770257021000920CA
:10017000064EB04780229200054B5A612770657089
:1001800021001920B04703B0F0BDC046A107000010
:100190000044004110B5002200230270427000218B
:1001A0004280017103760262C26182600373C024DF
:1001B0006401C481037443748374C37403752A2473
:1001C000035543758375063C0355C2840285C1758A
:1001D0002B23C1540133C15410BD0000F0B5D646E5
:1001E0004F464646C0B596B0070016000160C64AA5
:1001F000106A80235B00034313620B780520DB0742
:1002000005D516B01CBC90469946A246F0BD0B78A9
:1002100017309B07F5D473783B71002B04D1BB4A90
:10022000136C04210B4313640023BB60FB603B6130
:10023000BB76FB763B833B77B54B1F602A23F35C91
:10024000002B05D1337D002B02D101337B7701E0F8
:1002500000237B773B68984633786A46137069467B
:100260001320AC4B98471320AB4B98472C23F25CE0
:10027000002A54D0013BF55C337BEB18DBB2D1187C
:10028000C9B28B4221D25219D3B29946A34B9A4696
:1002900003E00135EDB24D4517D00F242C40337BE0
:1002A000E41850229E4902A8D047092CF1D8A40096
:1002B00002ABE05801A900234B70CB708B70013367
:1002C0000B70C0B2974B9847E3E7F48950229449EA
:1002D00002A8924B9847092C13D9737D9B00DBB27F
:1002E00042461370B37DDB0172781343DBB24246A2
:1002F00053703379342B00D97BE19B008A4AD35861
:100300009F46A40002ABE05801A900234B70CB70BC
:100310008B7001330B70C0B2824B9847DDE7347BA2
:1003200050227F4902A87D4B9847092C15D9F489A2
:1003300050227B4902A8794B9847092CCDD8A400BC
:1003400002ABE05801A900234B70CB708B700133D6
:100350000B70C0B2734B9847BFE7A40002ABE058E4
:1003600001A900234B70CB708B7001330B70C0B2AE
:100370006C4B9847DBE70423102402211AE0717CC0
:10038000337C102416E006231024012112E00823F8
:10039000102400210EE00023302400210AE0002375
:1003A0002024002106E000230024002102E0022393
:1003B00010240121090170220A4013434246937020
:1003C000F37D17203F2B00D91BE7D3703A68537E8B
:1003D0005BB2002BFBDBF37C728813432422B25CFC
:1003E000D2001343327D92001343B27C5200134378
:1003F000234342469380337E002B20D0102C00D123
:10040000D9E000D898E0202C00D1B6E0302C16D1ED
:10041000F27C002A0AD0F26980321720FF2A00D924
:10042000EFE6326A8032FF2A00D9EAE61720F26945
:10043000FF2A00DDE5E6326AFF2A00DDE1E63968E1
:100440004A7E52B2002AFBDB424613723A68537E60
:100450005BB2002BFBDBB38B424693833A68537E3F
:100460005BB2002BFBDB338C424613842C23F35C02
:10047000002B05D0013BDBB217200F2B00D9C0E6C3
:100480002B22B15C17200F2900D9BAE63868427ECA
:1004900052B2002AFBDBF289307B0243B068024390
:1004A00009050A431B041343424613612A23F35CE4
:1004B00013750F2393751533F35C002B12D0F38C57
:1004C0001A4A1720934200D99BE642469384328D04
:1004D00080231B01D31815499BB28B4200D990E6AB
:1004E0004346DA84124B1B685B01E022D2001340C2
:1004F000104A516849011268D20E0A43D2B213431E
:100500004246138500207CE60004004000080040BD
:1005100064000020F115000065150000A51D000015
:100520008C1E0000E9160000B81D0000FF0F00003F
:100530002460800020608000002C00D07FE7F27CE7
:10054000002A0FD0F269802109018C4662442A49B1
:1005500017208A4200D954E6326A624426498A4208
:1005600000D94EE6244A1720F169914200DD48E6A1
:10057000316A914200DD44E661E7F27C002A0FD047
:10058000F269802189008C4662441C4917208A4206
:1005900000D936E6326A624418498A4200D930E608
:1005A000164A1720F169914200DD2AE6316A91422C
:1005B00000DD26E643E7F27C002A0FD0F2698021B5
:1005C00009028C4662440E4917208A4200D918E677
:1005D000326A62440A498A4200D912E6084A172060
:1005E000F169914200DD0CE6316A914200DD08E6D6
:1005F00025E7172005E6C046FF0F0000FF030000B7
:10060000FFFF000070B52F4B1D682B681A7EDC7D44
:100610001440E20716D4630708D504232A6813762A
:10062000EB7E9B0702D5AB7E9B0742D4A30708D580
:1006300002232A681376EB7E5B0702D5AB7E5B074D
:100640003BD470BD01221A762A68537E5BB2002B20
:10065000FBDB69698B1C6B61538B9BB20B802B8B13
:10066000013B9BB22B83002B11D06B7F002BD2D090
:100670002A68537E5BB2002BFBDB137B02210B430A
:1006800013732A68537E5BB2002BFBDBC3E70123A5
:100690002A6893752B7F052BBDD100232B77EB7E2A
:1006A000DB07B8D5AB7EDB07B5D52800AB6898472C
:1006B000B1E72800EB689847B8E72B69280098470E
:1006C000BFE7C0466400002070B50022104B1A70CE
:1006D000002310491F25104E0D4C0AE00D4908E07B
:1006E00023780133DBB223700F2B10D800211F2B8E
:1006F000F4D9280018400122824008691042EFD046
:100700000A619B009B59002BEAD09847E8E770BD2F
:1007100068000020001800406C000020044A137894
:1007200002210B43137053785BB2002BFBDB704745
:100730000018004000B583B0124A936940210B4372
:10074000936101A900230B7005200F4B98470520EA
:100750000E4B98470E4A137801210B4313705378C0
:100760005BB2002BFBDB0B4B19004031002204C3B2
:100770009942FCD11022084B1A60084B984703B0ED
:1007800000BDC04600040040F115000065150000E2
:10079000001800406C00002000E100E01D07000090
:1007A00000B583B001AB80221A700A785A704A787B
:1007B0009A708A78DA701900014B984703B000BD2F
:1007C000E9160000F0B5DE4657464E464546E0B510
:1007D00087B08046049116001F00002200230021EC
:1007E0008B463F2401202100009601975C4603942C
:1007F0004446059413E02024641A0500E540A84609
:1008000014E0009C019D121BAB415C464D462C43FD
:10081000A346039C45462C430394013925D3202449
:1008200064420C19E7D40500A540A84604008C409A
:10083000A14692185B4114001D00059E4F463E40A4
:10084000B446049E47463E40B246664657463E433F
:1008500003D00600264332002B00009C019D9D42E0
:10086000DBD8CED19442D8D8CBE7039B58461900A9
:1008700007B03CBC90469946A246AB46F0BD10B5C9
:10088000490840230024814202D2180010BD1C00F8
:10089000091A631C9BB28842F9D94023FF2CF4D873
:1008A00014800023F1E70000F0B583B00F001600BC
:1008B00008AA117804004C434022BC4202D910001F
:1008C00003B0F0BD002B14D1020008000021194C28
:1008D000A04701003A0000230020174CA047002247
:1008E0000123121A8B41120C1B041A43328000227E
:1008F000E5E70022012BF9D10A00002300210D4C6D
:10090000A04702000B0000920193380000210A4C1E
:10091000A047050080239B0140229842CFD8790F41
:10092000F800009A019BA047EA00821AD2B2520353
:100930002A43DBE7091D0000C507000010B582B09F
:1009400004000E4B1B78002B07D0002905D10B4B60
:100950005B78834210D01D200CE001A90C700D20A3
:10096000074B98470D20074B9847044B5C700122BA
:100970001A70002002B010BD0020FBE738000020F4
:10098000F115000065150000204B984217D0204B50
:10099000984224D01F4B984201D000207047012973
:1009A00007D000292BD0022905D0032905D000202B
:1009B000F4E71948F2E71948F0E71948EEE701298A
:1009C00007D000291DD0022905D0032905D0002019
:1009D000E4E71448E2E71448E0E71448DEE70129B9
:1009E00007D000290FD0022905D0032905D0002007
:1009F000D4E70F48D2E70F48D0E70F48CEE70F48BB
:100A0000CCE70F48CAE70F48C8E7C046000C0042D1
:100A10000010004200080042030005000300060029
:100A2000030007000200170003001E0003001F0060
:100A30000300170003001000030019000300040066
:100A4000020016000300160030B585B001AA0B4B5A
:100A500032CB32C20300019A82420CD0029A824207
:100A600007D00020039A9A4201D005B030BD023071
:100A700002E0012000E00020C0B2F6E7DC1E00002A
:100A80007047000030B50A4B1B78002B0CD1094C85
:100A9000094D2560094B00221A6065605A60A56007
:100AA0009A600132024B1A708000024BC15030BD77
:100AB0003A0000203C000020810A0000AC00002029
:100AC00010B582B001AC0923237001336370013388
:100AD000A370024B9847205602B010BD490A00008F
:100AE00010B5024B1B680020984710BD3C00002049
:100AF00010B5024B5B680120984710BD3C000020F8
:100B000010B5024B9B680220984710BD3C000020A6
:100B1000F0B5DE4657464E464546E0B591B0050075
:100B20000C00160029600800BA4B984702002368A1
:100B30000520DB0706D511B03CBC90469946A2467D
:100B4000AB46F0BD236817309B07F4D4B249086A5E
:100B5000971C0123BB4003430B620FA92D27F35DB4
:100B60000B700E32D3B202931800AC4B9847029828
:100B7000AB4B9847F05D0021AA4B9847F37A6B7115
:100B80002423F35CAB712523F35CEB71F37E2B72B2
:100B9000337F6B722B68984618009E4B98470E3037
:100BA00000220E2306A98C4663441A80328A0292E0
:100BB0008023DB019A4200D19AE00FD9C023DB01E8
:100BC000029A9A4200D18EE080231B029A4200D002
:100BD0001BE1032306930023079308E080239B0176
:100BE0009A4200D011E1102306930F3B079333681C
:100BF0000593F3689B4673690393337E049326231E
:100C0000F35C9A4673689946002B00D19CE08023E0
:100C10005B05994500D180E0737E002B02D0B37E46
:100C2000424693730E2306AA944663441B884246A9
:100C30009381059B5A461343039A13434A46134331
:100C4000029F1F43049B1B021F4353465B071F4326
:100C50002723F35C002B01D104331F43737E9B02D7
:100C6000327F52021343727F120213432422B25C7A
:100C7000520413432522B25C12041343B17AF27A70
:100C8000114319433389FF2B00D181E080225204A4
:100C9000174319432C23F35C002B03D1624B9B7841
:100CA0009B0701D580231F432A68D369002BFCD101
:100CB000434659602A68D369002BFCD143461F6024
:100CC0000EAB80221A7000225A70DA709A70336B61
:100CD0000A93736B0B93B36B0C93F36B02930D93AB
:100CE00000270AAE63E008230693073B07937EE7DD
:100CF00033680593F3689B4673690393337E0493CB
:100D00002623F35C9A4673689946002B18D08023FB
:100D10005B05994501D0002025E02723F35C002BDB
:100D200000D079E7336A1F00C0B2404B98470100FA
:100D30000E2206AB9C46624438003D4B984712E0B9
:100D400008230693002307932723F35C002B0ED080
:100D5000069B0093079B0E2206A98C466244B16A4B
:100D6000306A344FB847002800D0E4E654E7336ACD
:100D70001F00C0B22D4B98470100069B0093079BB4
:100D80000E2206A88446624438002A4FB847EAE794
:100D9000F37E002B00D17DE78023DB041F4379E73E
:100DA0002000254B984707E00137042F0DD0F9B2FA
:100DB000BB0098590028F3D0431CF5D00EA9087049
:100DC000000CC0B21D4B9847EEE70023EB602B618F
:100DD0006B61AB61EB612B62AB626B620022EB85F6
:100DE000AB853033EA540133EA540133EA5401331A
:100DF000EA542868074B984704001149114B98475B
:100E0000A400114BE550002095E610230693002323
:100E10000793ECE6490A000000040040F1150000C9
:100E2000651500003D090000002000410D1600007E
:100E30007F080000A908000089090000E9160000E9
:100E400015100000850A0000AC000020C2791C23A8
:100E5000002A01D118007047C28D92B2173B002AB8
:100E6000F8D1026811850221137E0B42FCD00023C9
:100E7000F0E70000F0B5CE46474680B583B00500E8
:100E800001911720002A04D103B00CBC904699466A
:100E9000F0BDEB790530002BF6D02C68013A93B207
:100EA000994600260127204B984611E0731C9BB2FF
:100EB000019A915D6A79012A17D089B21E00280033
:100EC0001A4B98474B46013B9BB29946434513D07A
:100ED000237E3B42EAD1144B227E3A42E6D1012BDB
:100EE00019D0013B002BF7D1E0E70236B6B2019AE8
:100EF000D35C1B021943E2E7237E9B070DD40A4B08
:100F00000221227E0A420AD1012B0AD0013B002B8A
:100F1000F7D10020B8E71220B6E70020B4E70020A0
:100F2000B2E71220B0E7C046FFFF00004D0E000000
:100F3000F8B506000C00150007680A4B9847F38DBA
:100F40009BB2002B03D0084B98470520F8BDF585D0
:100F5000054B9847B46205223323F254323BBB75EC
:100F60000020F3E7ED0000002D010000F8B50400BB
:100F70000D00160007680F4B9847A38D9BB2002BFE
:100F800003D00D4B98470520F8BDA6850A4B98471E
:100F9000656205223223E2542E3BBB75237A002B77
:100FA00001D02023BB75637A0020002BECD00823EE
:100FB000BB75E9E7ED0000002D010000931C9B00CC
:100FC000C31859603021012393401A00435C134336
:100FD0004354704710B51723002A01D1180010BDE3
:100FE000C4790533002CF9D0014B98470300F5E78D
:100FF000310F000010B51723002A01D1180010BDD1
:1010000084790533002CF9D0014B98470300F5E7AC
:101010006D0F0000F8B58000624BC5582C68E3697D
:10102000002BFCD1237EA67D1E403023EB5C3122B9
:10103000AF5C1F40F30722D5EB8D9BB2002B1CD079
:10104000AA6A1378DBB2511CA962697901290ED012
:101050009BB2DB05DB0D2385EB8D013B9BB2EB8562
:10106000002B0CD1013323750133A37507E05178B0
:1010700009020B430232AA62EBE701232375B3078F
:1010800006D50223237500223133EA54FB071AD414
:10109000730765D5AB8D9BB2002B5FD0638BDBB242
:1010A0001A0714D43F221340002B34D09A0711D5CD
:1010B0001A223223EA54303B63837B0750D5280041
:1010C0006B6998474CE02800EB689847E0E73722C7
:1010D0001340E9E75A0705D51E223223EA542E3B76
:1010E0006383EAE7DA0705D513223223EA54313B5A
:1010F0006383E2E7DA0605D542223223EA54223B33
:101100006383DAE720221A42D7D021323223EA540D
:10111000123B6383D1E7238DDB05DB0DDAB2696A0D
:101120000A706A6A511C69626979012910D0AB8D15
:10113000013B9BB2AB85002B12D1043323750022F7
:101140002E33EA54BB070BD528002B69984707E0DC
:101150001B0A53706B6A01336B62E8E70423237543
:10116000F30604D5102323752376FB060ED4B306AD
:1011700004D52023237523763B070BD4330704D5EE
:10118000082323752376BB0608D4F8BD2800EB6935
:101190009847ECE72800AB699847EFE72B6A2800EF
:1011A0009847F2E7AC00002010B5082803D880006B
:1011B0001C4B1B589F46002032E01B4B18692FE048
:1011C0001A4B1B6A9B059B0F1948D84028E0164B09
:1011D000586925E0144B1B6800209B0720D5134954
:1011E0001022CB681A42FCD00F4B1A6824231340FC
:1011F000042B01D00F4813E000200F4B98470A4BF7
:101200009B681B041B0C58430AE05023074AD35C1D
:1012100000205B0704D5044BD86801E08020000261
:1012200010BDC046E81E0000480000200008004035
:1012300000127A00006CDC020D16000070B50C493B
:101240000B6A04788578407801221040800140269E
:10125000B34303432A40D201802083431343032234
:10126000224012020348034013430B6270BDC04684
:1012700000080040FFFCFFFF082803D88000254B32
:101280001B589F46172044E0234A136A02210B4350
:10129000136200203DE0204A936902210B439361D1
:1012A000002036E01C4A138A02210B4313820020DF
:1012B0002FE0194A938A02210B439382002028E0F1
:1012C00016490B68022213430B60134B9A841900D2
:1012D0000E32CB681A42FCD0104A91680E4BD9628C
:1012E00052689A6200229A8419001032CB681A421E
:1012F000FCD00A4B1B689BB2074A9384002008E08D
:10130000054944228B5C022003438B54002000E0FB
:10131000002070470C1F000000080040480000201B
:1013200030B585B0C222D2001A4B9A601A4A53686F
:101330001E218B43536001236A4613700024174D0E
:10134000E0B26946A8470134182CF9D103A800245B
:101350004470012585700470114B98470620114B8D
:101360009847114B9847114B1C725C729C72DC724F
:1013700001956B465C7006236A46137014725472B2
:10138000694600200A4B984700200A4B984705B051
:1013900030BDC0460008004000400041F11500008B
:1013A0003D12000079120000B91300000004004053
:1013B000DD13000095140000064A936908210B43D1
:1013C00093610122044B1A7019000B781342FCD16F
:1013D0007047C04600040040000C004070B5060095
:1013E00004000D782D0205434B78002B02D080239A
:1013F000DB021D434B7A002B02D080231B031D43CD
:101400004868012810D9431E184234D1022830D927
:101410000223002201325B009842FBD812023243C1
:10142000140080235B031D430B7A002B02D0802322
:101430009B031D43134A53785BB2002BFBDB124B1B
:101440009847124B1E700F4A53785BB2002BFBDBA0
:101450000C4B9C601A0053785BB2002BFBDB094AF3
:101460005368802149020B401D435560084B984743
:1014700070BD0022D2E70402344380239B021D4347
:10148000D2E7C046000C0040ED000000080C004010
:101490002D01000010B504000B4A53785BB2002BFD
:1014A000FBDB0A4B98470A4B1C70074A53785BB228
:1014B000002BFBDB044A516880235B020B43536023
:1014C000044B984710BDC046000C0040ED000000E2
:1014D000040C00402D01000070B504001A4A537836
:1014E0005BB2002BFBDB194B9847194B1C70164A5B
:1014F00053785BB2002BFBDB134E7068C004C00E48
:10150000144B98470500124B1C707668F602F60FD4
:10151000114B1C700C4A53785BB2002BFBDB0A4B5F
:101520009C682402240C0D4B9847002E07D1012CF7
:1015300007D9210028000A4B9847050001E0013433
:10154000E540280070BDC046000C0040ED000000E2
:10155000040C0040A9110000080C00402D010000FF
:10156000F11B000010B50400064B9847064B1C7099
:10157000064A53888021C9010B435380044B984786
:1015800010BDC046ED000000020C0040000C004001
:101590002D01000010B504000F4B98470F4B1C7035
:1015A0000F4A53881B05180F53880E490B40538070
:1015B00053880D490B40538011008022D2014B8883
:1015C0001342FCD106494A880302064802401343ED
:1015D0004B80064B984710BDED000000020C004008
:1015E000000C0040FFF0FFFFFFBFFFFF2D010000D8
:1015F00010B50C7824020443024B9847A4B2024B66
:101600005C8010BD95150000000C004010B5040072
:10161000064B9847064B1C70064B5C882405240F2C
:10162000054B98472000054B984710BDED00000082
:10163000020C0040000C00402D010000D9140000F5
:1016400030B5D378002B35D11378802B29D01B06E9
:1016500080246402234354780225AC4306D1947855
:10166000002C20D18024A402234341605478013C03
:10167000012C1CD90D042D0CA024E4052C431C4383
:1016800084620D0CD02424062C431C438462D4783D
:10169000002C22D15B031CD59378012B1ED0416115
:1016A00017E00023D7E7C024E4022343DDE70D4C15
:1016B0002340DFE741600C04240CA023DB05234317
:1016C00083620C0CD0231B0623438362D378002B48
:1016D00003D15378013B012B02D930BD8161F8E77A
:1016E0008160FAE7FFFFFBFF10B50A00C109002384
:1016F000002904D14309DB0105498C4663441F24BA
:101700002040012181401800024B984710BDC0467F
:1017100000440041411600007047000010B5054B21
:101720009847054B9847054B9847054B9847054BFD
:10173000984710BD211300005D010000191700003B
:10174000350700001917000070B58000164BC4580B
:1017500023689D7B227E637E13401D40EB0706D4E9
:10176000AB070BD4EB0610D4AB0615D470BD20002C
:10177000A3689847012322689373F1E72000E36888
:101780009847022322689373ECE720002369984767
:10179000102322689373E7E7200063699847236862
:1017A00020229A73E2E7C046B800002010B500205E
:1017B000014B984710BDC0464917000010B50120E5
:1017C000014B984710BDC04649170000FEE70000D6
:1017D00010B5264A264B9A4211D01A00254B9A4240
:1017E0000DD2254A03339B1A9B0801339B0000222C
:1017F0001F481E498C58845004329A42FAD11F4A1D
:101800001F4B9A420AD2D3431D495B1803218B43D5
:1018100004339B18002102C29342FCD1194AFF21D4
:10182000194B8B439360FD3990235B00174AD150CD
:10183000174B9A7B2E318A4320210A439A739A7B55
:101840000C218A4308210A439A739A7B03218A4315
:1018500002210A439A730F4A536880210B43536055
:101860000D4B98470D4B9847FEE7C0466C1F000094
:1018700000000020140000200400002014000020BC
:10188000C402002000ED00E00000000000700041F4
:1018900000480041004000415D1D0000211B000088
:1018A0007047000010B5012203490448044B9847D3
:1018B0000122044B1A7010BDF4000020C00000206B
:1018C000D50F00000100002030B591B08023DB056A
:1018D000009300230193FF2269460A8100228B7244
:1018E000CB72962189010891012124206C46215454
:1018F0000130215425316354013163540A93053179
:1019000063540131635405932382E3762276227770
:1019100062761323A3766277C4239B030393012388
:101920005B420C930D93104B0E93104B0F93104D85
:10193000104C6A4610492800A0470028F9D10C4DE8
:101940002C6820000D4B98471F2318401E3B8340F6
:101950000B4A13602A68D369002BFCD1236802224A
:101960001343236011B030BD03000A0003000B00D5
:10197000C0000020110B000000100042C10A00004E
:1019800000E100E070B5084C002208492000084D35
:10199000A847012207492000A8473122A35C032160
:1019A0000B43A35470BDC046C0000020A118000026
:1019B000BD0F0000A518000010B58CB06846104B94
:1019C0009847104C6A4610492000104B98472268EF
:1019D000537E5BB2002BFBDB802109020C4B1960AC
:1019E0000F2393751376137802210B431370054B65
:1019F0001A68537E5BB2002BFBDB0CB010BDC046F7
:101A0000950100001401002000200042DD010000CB
:101A100000E100E0F0B5D6464F464646C0B5374B2C
:101A20009846374B9A4648E00C4213D10132C82AF7
:101A300028D0530049465B5A9BB29C463068037ECF
:101A4000DBB2210019401F4200D029431D42EBD0D8
:101A50003943E9E7437E5BB2002BFBDB438B6146F6
:101A60000B80534618680476037EDBB221001940D0
:101A70001F4200D029431D4200D039430F42D5D028
:101A80000576D3E71F4B1B78002B11D000271D4D87
:101A900000241D4E2C707A00915B01377B009B5B0C
:101AA000915B89B202221948194B9847C82FF1D18E
:101AB000012212491548174B984743461B78612B62
:101AC00005D00E4B1B78DBB2134A934211D1012291
:101AD0000A490E480F4B9847104B1B889BB2002BAE
:101AE000E6D10022084B9946054E01240427022521
:101AF0009FE71CBC90469946A246F0BDF40000202A
:101B0000140100200100002034010020C00000204A
:101B1000750E0000F50F0000481F00006000002057
:101B2000F8B5234B9847234B9847234B9847234BB3
:101B300098470122224B1A70BFF35F8F62B60E32B4
:101B400020492148214B9847214B1B685A7E52B2AD
:101B5000002AFBDB1A7B02210A431A735A7E52B217
:101B6000002AFBDB1B4D1C4F09E0174E05221B49C9
:101B70003000164CA047012217493000A0472B889F
:101B8000012239001048164B98473B78DBB2412BB5
:101B900001D0612BE9D10C4C0522124920000B4EDB
:101BA000B047114B9847052210492000B047E6E79F
:101BB0001D170000C918000085190000B9190000A0
:101BC0000000002004000020C0000020750E00006E
:101BD0001401002060000020F4000020401F0000DD
:101BE000F50F0000301F0000151A0000381F00001C
:101BF000002243088B4274D303098B425FD3030A4C
:101C00008B4244D3030B8B4228D3030C8B420DD35E
:101C1000FF22090212BA030C8B4202D312120902EC
:101C200065D0030B8B4219D300E0090AC30B8B422A
:101C300001D3CB03C01A5241830B8B4201D38B03D8
:101C4000C01A5241430B8B4201D34B03C01A52417D
:101C5000030B8B4201D30B03C01A5241C30A8B42C0
:101C600001D3CB02C01A5241830A8B4201D38B02AB
:101C7000C01A5241430A8B4201D34B02C01A52414F
:101C8000030A8B4201D30B02C01A5241CDD2C309C1
:101C90008B4201D3CB01C01A524183098B4201D33D
:101CA0008B01C01A524143098B4201D34B01C01A28
:101CB000524103098B4201D30B01C01A5241C308A0
:101CC0008B4201D3CB00C01A524183088B4201D30F
:101CD0008B00C01A524143088B4201D34B00C01AFB
:101CE0005241411A00D20146524110467047FFE767
:101CF00001B5002000F006F802BDC0460029F7D06B
:101D000076E770477047C046F0B5CE4647461504A3
:101D10002D0C2E0080B50704140C3F0C9946030CC3
:101D20007E435D43674363437F19340CE4199C464B
:101D3000A54203D980235B029846C4444B465143D5
:101D400043433604360C250C24046544A419591861
:101D5000491920000CBC90469946F0BD70B500268C
:101D60000C4D0D4C641BA410A64209D1002600F0B6
:101D7000EDF80A4D0A4C641BA410A64205D170BDB3
:101D8000B300EB5898470136EEE7B300EB5898479D
:101D90000136F2E7581F0000581F0000581F0000CE
:101DA0005C1F0000002310B59A4200D110BDCC5C2E
:101DB000C4540133F8E70000A6030000F205000058
:101DC000F2050000F2050000F2050000F205000037
:101DD000F2050000F2050000F2050000F205000027
:101DE000F2050000F2050000F2050000F205000017
:101DF000F2050000F20500008E030000F20500006D
:101E0000F2050000F2050000F2050000F2050000F6
:101E1000F2050000F2050000F2050000F2050000E6
:101E2000F2050000F2050000F2050000F2050000D6
:101E3000F2050000F20500009E030000F20500001C
:101E4000F2050000F2050000F2050000F2050000B6
:101E5000F2050000F2050000F2050000F2050000A6
:101E6000F2050000F2050000F2050000F205000096
:101E7000F2050000F205000096030000AE0300002A
:101E800076030000860300007E03000002000000CD
:101E90000300000004000000050000000600000030
:101EA000070000000E0000000F0000000A00000004
:101EB0000B000000FFFF0000FFFF0000FFFF00001D
:101EC000FFFF0000FFFF0000FFFF0000FFFF00001A
:101ED000FFFF0000FFFF0000FFFF000000080042BE
:101EE000000C004200100042BA110000B6110000C0
:101EF000B61100001C1200001C120000CE110000E0
:101F0000C0110000D41100000A120000A412000049
:101F100084120000841200001013000096120000CA
:101F2000B212000088120000C0120000001300006E
:101F30004E4943452100000041434B210000000071
:101F400048454C502100000041000000F8B5C04653
:101F5000F8BC08BC9E467047B5000000F8B5C04606
:0C1F6000F8BC08BC9E4670478D000000D5
:101F6C000101000048656C6C6F20576F726C642126
:041F7C000D0A00004A
:04000003000017D111
:00000001FF
